:100000000C942A000C9454000C945E000C943C0058
:100010000C943C000C943C000C943C000C943C0070
:100020000C943C000C943C000C943C000C943C0060
:100030000C943C000C943C000C943C000C943C0050
:100040000C943C000C943C000C943C000C943C0040
:100050000C943C0011241FBECFE5D8E0DEBFCDBF1D
:1000600020E0A0E6B0E001C01D92A637B207E1F79C
:100070000E9490020C947C040C94000040E00E94CA
:10008000ED0208950E94E103089541E00E94ED020F
:10009000089541E00E946703089540E00E946703CD
:1000A00008950E94450408951F920F920FB60F9273
:1000B00011240F900FBE0F901F9018951F920F9252
:1000C0000FB60F9211242F933F934F935F936F932B
:1000D0007F938F939F93AF93BF93EF93FF932FE9FA
:1000E00086E891E0215080409040E1F700C0000098
:1000F000409172005091730063E084E40E944200DA
:10010000E0917200F09173008081813029F464E005
:1001100083E40E9451004DC080916C0090916D006D
:10012000019739F480916A0090916B00019709F46E
:1001300040C08091700090917100892BD1F560E0F2
:1001400083E40E94510081E090E0909371008093DD
:10015000700080916C0090916D00019751F481E0E6
:1001600090E090936F0080936E009093690080936D
:1001700068008091660090916700019751F481E0DA
:1001800090E090936F0080936E0090936500809351
:1001900064008091620090916300019751F481E0C6
:1001A00090E090936F0080936E0090936100809335
:1001B0006000FF91EF91BF91AF919F918F917F91DF
:1001C0006F915F914F913F912F910F900FBE0F90C4
:1001D0001F901895CF93DF9361E081E40E9449005E
:1001E00063E083E40E9449002FE382E49FE0215012
:1001F00080409040E1F700C0000063E083E40E948B
:100200004D00C0E0D0E023C062E083E40E944900DA
:1002100062E081E40E9449002FE986E891E02150E4
:1002200080409040E1F700C0000062E083E40E945B
:100230004D0062E081E40E944D002FE986E891E0E4
:10024000215080409040E1F700C000002196C53069
:10025000D105D4F261E081E40E944D0063E081E4C5
:100260000E94490061E083E40E9449002FE382E498
:100270009FE0215080409040E1F700C0000063E023
:1002800081E40E944D0061E083E40E944D001092E1
:1002900071001092700060E083E40E945100DF91D1
:1002A000CF910895CF93DF9363E081E40E944900EA
:1002B000C0E0D0E023C062E083E40E94490062E035
:1002C00081E40E9449002FE986E891E021508040B6
:1002D0009040E1F700C0000062E083E40E944D001E
:1002E00062E081E40E944D002FE986E891E0215010
:1002F00080409040E1F700C000002196C530D10554
:10030000D4F263E081E40E944D0063E083E40E9444
:10031000490061E081E40E9449002FE382E49FE00C
:10032000215080409040E1F700C0000063E083E48A
:100330000E944D00C0E0D0E023C062E083E40E9450
:10034000490062E081E40E9449002FE986E891E0DB
:10035000215080409040E1F700C0000062E083E45B
:100360000E944D0062E081E40E944D002FE986E882
:1003700091E0215080409040E1F700C000002196BC
:10038000C530D105D4F261E081E40E944D0063E004
:1003900081E40E94490061E083E40E9449002FE368
:1003A00082E49FE0215080409040E1F700C00000CF
:1003B00063E081E40E944D0061E083E40E944D000F
:1003C000109271001092700060E083E40E9451006E
:1003D000DF91CF91089563E081E40E94490061E0DC
:1003E00083E40E94490081E090E09093670080934D
:1003F00066002FE382E49FE0215080409040E1F7C7
:1004000000C0000061E083E40E944D00109267008C
:10041000109266008091640090916500019731F41C
:1004200010926500109264000E94520163E081E422
:100430000E944D00089561E081E40E94490063E05C
:1004400083E40E94490081E090E090936D008093E6
:100450006C0090936B0080936A002FE382E49FE02E
:10046000215080409040E1F700C0000063E083E449
:100470000E944D0010926D0010926C0010926B0063
:1004800010926A008091680090916900019711F4C0
:100490000E94EA0061E081E40E944D000895CF933C
:1004A000DF9381E090E09093630080936200C0E06E
:1004B000D0E02CC062E083E40E94490062E081E465
:1004C0000E9449002FE986E891E021508040904049
:1004D000E1F700C0000062E083E40E944D0062E0AA
:1004E00081E40E944D002FE986E891E02150804090
:1004F0009040E1F700C000008091600090916100A1
:10050000019719F40E94520104C02196C530D1050B
:100510008CF21092630010926200DF91CF910895E7
:1005200013BE12BE63E084E40E943E0060E083E4F8
:100530000E94450064E083E40E94450061E083E49A
:100540000E94450062E083E40E94450063E083E48A
:100550000E94450061E081E40E94450062E081E480
:100560000E94450063E081E40E94450078948DE09C
:1005700085BF8BB780688BBF0E94EB010E944F0242
:100580008091600090916100019731F410926100B8
:10059000109260000E944F020E941B020E944F02B4
:1005A0008091600090916100019741F41092610088
:1005B000109260000E944F020E941B02809168000E
:1005C000909169000197C1F610926900109268003D
:1005D0000E941B020E944F02CFCF823431F118F4E7
:1005E000813439F008958334E1F1843409F454C03E
:1005F000089541110CC02AB381E090E002C0880F39
:10060000991F6A95E2F7809582238ABB089541304D
:1006100009F05CC02AB381E090E002C0880F991F06
:100620006A95E2F7822B8ABB089541110CC027B36B
:1006300081E090E002C0880F991F6A95E2F78095EB
:10064000822387BB0895413009F040C027B381E081
:1006500090E002C0880F991F6A95E2F7822B87BB52
:10066000089541110CC024B381E090E002C0880FCE
:10067000991F6A95E2F78095822384BB08954130E3
:1006800029F524B381E090E002C0880F991F6A9594
:10069000E2F7822B84BB089541110CC021B381E0A5
:1006A00090E002C0880F991F6A95E2F78095822337
:1006B00081BB0895413051F421B381E090E002C044
:1006C000880F991F6A95E2F7822B81BB08958234C7
:1006D00031F118F4813439F008958334E1F1843430
:1006E00009F454C0089541110CC02BB381E090E08F
:1006F00002C0880F991F6A95E2F7809582238BBB11
:100700000895413009F05CC02BB381E090E002C055
:10071000880F991F6A95E2F7822B8BBB08954111D0
:100720000CC028B381E090E002C0880F991F6A9541
:10073000E2F78095822388BB0895413009F040C0DC
:1007400028B381E090E002C0880F991F6A95E2F714
:10075000822B88BB089541110CC025B381E090E045
:1007600002C0880F991F6A95E2F78095822385BBA6
:100770000895413029F525B381E090E002C0880F4B
:10078000991F6A95E2F7822B85BB089541110CC031
:1007900022B381E090E002C0880F991F6A95E2F7CA
:1007A0008095822382BB0895413051F422B381E0C9
:1007B00090E002C0880F991F6A95E2F7822B82BBF6
:1007C0000895823401F118F4813439F008958334A6
:1007D00081F1843409F443C0089579B381E090E055
:1007E0009C01062E02C0220F331F0A94E2F7872FC6
:1007F00090E08223932302C0959587956A95E2F74E
:10080000FA018083089576B381E090E09C01062E82
:1008100002C0220F331F0A94E2F7872F90E0822351
:10082000932302C0959587956A95E2F7FA01808334
:10083000089573B381E090E09C01062E02C0220F60
:10084000331F0A94E2F7872F90E08223932302C09C
:10085000959587956A95E2F7FA018083089570B3BC
:1008600081E090E09C01062E02C0220F331F0A9403
:10087000E2F7872F90E08223932302C09595879516
:100880006A95E2F7FA01808308958234A1F018F4A2
:10089000813431F008958334C9F0843411F108951E
:1008A0002BB381E090E002C0880F991F6A95E2F7B0
:1008B00082278BBB089528B381E090E002C0880FA7
:1008C000991F6A95E2F7822788BB089525B381E0D6
:1008D00090E002C0880F991F6A95E2F7822785BBD6
:1008E000089522B381E090E002C0880F991F6A95B5
:0C08F000E2F7822782BB0895F894FFCF46
:00000001FF
